{
  "_format": "hh-sol-artifact-1",
  "contractName": "AssetWrapper",
  "sourceName": "contracts/AssetWrapper.sol",
  "abi": [
    {
      "inputs": [
        {
          "internalType": "address",
          "name": "initialOwner",
          "type": "address"
        }
      ],
      "stateMutability": "nonpayable",
      "type": "constructor"
    },
    {
      "inputs": [
        {
          "internalType": "address",
          "name": "sender",
          "type": "address"
        },
        {
          "internalType": "uint256",
          "name": "tokenId",
          "type": "uint256"
        },
        {
          "internalType": "address",
          "name": "owner",
          "type": "address"
        }
      ],
      "name": "ERC721IncorrectOwner",
      "type": "error"
    },
    {
      "inputs": [
        {
          "internalType": "address",
          "name": "operator",
          "type": "address"
        },
        {
          "internalType": "uint256",
          "name": "tokenId",
          "type": "uint256"
        }
      ],
      "name": "ERC721InsufficientApproval",
      "type": "error"
    },
    {
      "inputs": [
        {
          "internalType": "address",
          "name": "approver",
          "type": "address"
        }
      ],
      "name": "ERC721InvalidApprover",
      "type": "error"
    },
    {
      "inputs": [
        {
          "internalType": "address",
          "name": "operator",
          "type": "address"
        }
      ],
      "name": "ERC721InvalidOperator",
      "type": "error"
    },
    {
      "inputs": [
        {
          "internalType": "address",
          "name": "owner",
          "type": "address"
        }
      ],
      "name": "ERC721InvalidOwner",
      "type": "error"
    },
    {
      "inputs": [
        {
          "internalType": "address",
          "name": "receiver",
          "type": "address"
        }
      ],
      "name": "ERC721InvalidReceiver",
      "type": "error"
    },
    {
      "inputs": [
        {
          "internalType": "address",
          "name": "sender",
          "type": "address"
        }
      ],
      "name": "ERC721InvalidSender",
      "type": "error"
    },
    {
      "inputs": [
        {
          "internalType": "uint256",
          "name": "tokenId",
          "type": "uint256"
        }
      ],
      "name": "ERC721NonexistentToken",
      "type": "error"
    },
    {
      "inputs": [
        {
          "internalType": "address",
          "name": "owner",
          "type": "address"
        }
      ],
      "name": "OwnableInvalidOwner",
      "type": "error"
    },
    {
      "inputs": [
        {
          "internalType": "address",
          "name": "account",
          "type": "address"
        }
      ],
      "name": "OwnableUnauthorizedAccount",
      "type": "error"
    },
    {
      "inputs": [],
      "name": "ReentrancyGuardReentrantCall",
      "type": "error"
    },
    {
      "inputs": [
        {
          "internalType": "address",
          "name": "token",
          "type": "address"
        }
      ],
      "name": "SafeERC20FailedOperation",
      "type": "error"
    },
    {
      "anonymous": false,
      "inputs": [
        {
          "indexed": true,
          "internalType": "address",
          "name": "owner",
          "type": "address"
        },
        {
          "indexed": true,
          "internalType": "address",
          "name": "approved",
          "type": "address"
        },
        {
          "indexed": true,
          "internalType": "uint256",
          "name": "tokenId",
          "type": "uint256"
        }
      ],
      "name": "Approval",
      "type": "event"
    },
    {
      "anonymous": false,
      "inputs": [
        {
          "indexed": true,
          "internalType": "address",
          "name": "owner",
          "type": "address"
        },
        {
          "indexed": true,
          "internalType": "address",
          "name": "operator",
          "type": "address"
        },
        {
          "indexed": false,
          "internalType": "bool",
          "name": "approved",
          "type": "bool"
        }
      ],
      "name": "ApprovalForAll",
      "type": "event"
    },
    {
      "anonymous": false,
      "inputs": [
        {
          "indexed": true,
          "internalType": "uint256",
          "name": "wrapperId",
          "type": "uint256"
        },
        {
          "indexed": true,
          "internalType": "address",
          "name": "owner",
          "type": "address"
        }
      ],
      "name": "AssetUnwrapped",
      "type": "event"
    },
    {
      "anonymous": false,
      "inputs": [
        {
          "indexed": true,
          "internalType": "uint256",
          "name": "wrapperId",
          "type": "uint256"
        },
        {
          "indexed": true,
          "internalType": "address",
          "name": "owner",
          "type": "address"
        },
        {
          "indexed": false,
          "internalType": "enum AssetWrapper.AssetType",
          "name": "assetType",
          "type": "uint8"
        }
      ],
      "name": "AssetWrapped",
      "type": "event"
    },
    {
      "anonymous": false,
      "inputs": [
        {
          "indexed": true,
          "internalType": "uint256",
          "name": "wrapperId",
          "type": "uint256"
        },
        {
          "indexed": true,
          "internalType": "address",
          "name": "owner",
          "type": "address"
        },
        {
          "components": [
            {
              "internalType": "address",
              "name": "contractAddress",
              "type": "address"
            },
            {
              "internalType": "enum AssetWrapper.AssetType",
              "name": "assetType",
              "type": "uint8"
            },
            {
              "internalType": "uint256",
              "name": "amount",
              "type": "uint256"
            },
            {
              "internalType": "uint256",
              "name": "tokenId",
              "type": "uint256"
            }
          ],
          "indexed": false,
          "internalType": "struct AssetWrapper.Asset[]",
          "name": "assets",
          "type": "tuple[]"
        }
      ],
      "name": "AssetsWrapped",
      "type": "event"
    },
    {
      "anonymous": false,
      "inputs": [
        {
          "indexed": false,
          "internalType": "string",
          "name": "newBaseURI",
          "type": "string"
        }
      ],
      "name": "BaseURIUpdated",
      "type": "event"
    },
    {
      "anonymous": false,
      "inputs": [
        {
          "indexed": false,
          "internalType": "uint256",
          "name": "_fromTokenId",
          "type": "uint256"
        },
        {
          "indexed": false,
          "internalType": "uint256",
          "name": "_toTokenId",
          "type": "uint256"
        }
      ],
      "name": "BatchMetadataUpdate",
      "type": "event"
    },
    {
      "anonymous": false,
      "inputs": [
        {
          "indexed": true,
          "internalType": "address",
          "name": "owner",
          "type": "address"
        },
        {
          "indexed": false,
          "internalType": "uint256",
          "name": "amount",
          "type": "uint256"
        }
      ],
      "name": "ETHWithdrawn",
      "type": "event"
    },
    {
      "anonymous": false,
      "inputs": [
        {
          "indexed": false,
          "internalType": "bool",
          "name": "isPaused",
          "type": "bool"
        }
      ],
      "name": "EmergencyStop",
      "type": "event"
    },
    {
      "anonymous": false,
      "inputs": [
        {
          "indexed": false,
          "internalType": "uint256",
          "name": "newMax",
          "type": "uint256"
        }
      ],
      "name": "MaxAssetsPerWrapUpdated",
      "type": "event"
    },
    {
      "anonymous": false,
      "inputs": [
        {
          "indexed": false,
          "internalType": "uint256",
          "name": "_tokenId",
          "type": "uint256"
        }
      ],
      "name": "MetadataUpdate",
      "type": "event"
    },
    {
      "anonymous": false,
      "inputs": [
        {
          "indexed": true,
          "internalType": "address",
          "name": "previousOwner",
          "type": "address"
        },
        {
          "indexed": true,
          "internalType": "address",
          "name": "newOwner",
          "type": "address"
        }
      ],
      "name": "OwnershipTransferred",
      "type": "event"
    },
    {
      "anonymous": false,
      "inputs": [
        {
          "indexed": true,
          "internalType": "address",
          "name": "from",
          "type": "address"
        },
        {
          "indexed": true,
          "internalType": "address",
          "name": "to",
          "type": "address"
        },
        {
          "indexed": true,
          "internalType": "uint256",
          "name": "tokenId",
          "type": "uint256"
        }
      ],
      "name": "Transfer",
      "type": "event"
    },
    {
      "anonymous": false,
      "inputs": [
        {
          "indexed": true,
          "internalType": "address",
          "name": "newWETHAddress",
          "type": "address"
        },
        {
          "indexed": true,
          "internalType": "address",
          "name": "oldWETHAddress",
          "type": "address"
        }
      ],
      "name": "WETHTokenAddressUpdated",
      "type": "event"
    },
    {
      "anonymous": false,
      "inputs": [
        {
          "indexed": false,
          "internalType": "uint256",
          "name": "newFee",
          "type": "uint256"
        }
      ],
      "name": "WrapFeeUpdated",
      "type": "event"
    },
    {
      "inputs": [],
      "name": "MAX_ASSETS_LIMIT",
      "outputs": [
        {
          "internalType": "uint256",
          "name": "",
          "type": "uint256"
        }
      ],
      "stateMutability": "view",
      "type": "function"
    },
    {
      "inputs": [
        {
          "internalType": "address",
          "name": "to",
          "type": "address"
        },
        {
          "internalType": "uint256",
          "name": "tokenId",
          "type": "uint256"
        }
      ],
      "name": "approve",
      "outputs": [],
      "stateMutability": "nonpayable",
      "type": "function"
    },
    {
      "inputs": [
        {
          "internalType": "address",
          "name": "owner",
          "type": "address"
        }
      ],
      "name": "balanceOf",
      "outputs": [
        {
          "internalType": "uint256",
          "name": "",
          "type": "uint256"
        }
      ],
      "stateMutability": "view",
      "type": "function"
    },
    {
      "inputs": [
        {
          "internalType": "uint256",
          "name": "tokenId",
          "type": "uint256"
        }
      ],
      "name": "getApproved",
      "outputs": [
        {
          "internalType": "address",
          "name": "",
          "type": "address"
        }
      ],
      "stateMutability": "view",
      "type": "function"
    },
    {
      "inputs": [
        {
          "internalType": "uint256",
          "name": "wrapperId",
          "type": "uint256"
        }
      ],
      "name": "getLockedAssets",
      "outputs": [
        {
          "components": [
            {
              "internalType": "address",
              "name": "contractAddress",
              "type": "address"
            },
            {
              "internalType": "enum AssetWrapper.AssetType",
              "name": "assetType",
              "type": "uint8"
            },
            {
              "internalType": "uint256",
              "name": "amount",
              "type": "uint256"
            },
            {
              "internalType": "uint256",
              "name": "tokenId",
              "type": "uint256"
            }
          ],
          "internalType": "struct AssetWrapper.Asset[]",
          "name": "",
          "type": "tuple[]"
        }
      ],
      "stateMutability": "view",
      "type": "function"
    },
    {
      "inputs": [
        {
          "internalType": "address",
          "name": "owner",
          "type": "address"
        },
        {
          "internalType": "address",
          "name": "operator",
          "type": "address"
        }
      ],
      "name": "isApprovedForAll",
      "outputs": [
        {
          "internalType": "bool",
          "name": "",
          "type": "bool"
        }
      ],
      "stateMutability": "view",
      "type": "function"
    },
    {
      "inputs": [],
      "name": "maxAssetsPerWrap",
      "outputs": [
        {
          "internalType": "uint256",
          "name": "",
          "type": "uint256"
        }
      ],
      "stateMutability": "view",
      "type": "function"
    },
    {
      "inputs": [],
      "name": "name",
      "outputs": [
        {
          "internalType": "string",
          "name": "",
          "type": "string"
        }
      ],
      "stateMutability": "view",
      "type": "function"
    },
    {
      "inputs": [
        {
          "internalType": "address",
          "name": "",
          "type": "address"
        },
        {
          "internalType": "address",
          "name": "",
          "type": "address"
        },
        {
          "internalType": "uint256[]",
          "name": "",
          "type": "uint256[]"
        },
        {
          "internalType": "uint256[]",
          "name": "",
          "type": "uint256[]"
        },
        {
          "internalType": "bytes",
          "name": "",
          "type": "bytes"
        }
      ],
      "name": "onERC1155BatchReceived",
      "outputs": [
        {
          "internalType": "bytes4",
          "name": "",
          "type": "bytes4"
        }
      ],
      "stateMutability": "nonpayable",
      "type": "function"
    },
    {
      "inputs": [
        {
          "internalType": "address",
          "name": "",
          "type": "address"
        },
        {
          "internalType": "address",
          "name": "",
          "type": "address"
        },
        {
          "internalType": "uint256",
          "name": "",
          "type": "uint256"
        },
        {
          "internalType": "uint256",
          "name": "",
          "type": "uint256"
        },
        {
          "internalType": "bytes",
          "name": "",
          "type": "bytes"
        }
      ],
      "name": "onERC1155Received",
      "outputs": [
        {
          "internalType": "bytes4",
          "name": "",
          "type": "bytes4"
        }
      ],
      "stateMutability": "nonpayable",
      "type": "function"
    },
    {
      "inputs": [
        {
          "internalType": "address",
          "name": "",
          "type": "address"
        },
        {
          "internalType": "address",
          "name": "",
          "type": "address"
        },
        {
          "internalType": "uint256",
          "name": "",
          "type": "uint256"
        },
        {
          "internalType": "bytes",
          "name": "",
          "type": "bytes"
        }
      ],
      "name": "onERC721Received",
      "outputs": [
        {
          "internalType": "bytes4",
          "name": "",
          "type": "bytes4"
        }
      ],
      "stateMutability": "nonpayable",
      "type": "function"
    },
    {
      "inputs": [],
      "name": "owner",
      "outputs": [
        {
          "internalType": "address",
          "name": "",
          "type": "address"
        }
      ],
      "stateMutability": "view",
      "type": "function"
    },
    {
      "inputs": [
        {
          "internalType": "uint256",
          "name": "tokenId",
          "type": "uint256"
        }
      ],
      "name": "ownerOf",
      "outputs": [
        {
          "internalType": "address",
          "name": "",
          "type": "address"
        }
      ],
      "stateMutability": "view",
      "type": "function"
    },
    {
      "inputs": [],
      "name": "paused",
      "outputs": [
        {
          "internalType": "bool",
          "name": "",
          "type": "bool"
        }
      ],
      "stateMutability": "view",
      "type": "function"
    },
    {
      "inputs": [],
      "name": "renounceOwnership",
      "outputs": [],
      "stateMutability": "nonpayable",
      "type": "function"
    },
    {
      "inputs": [
        {
          "internalType": "address",
          "name": "from",
          "type": "address"
        },
        {
          "internalType": "address",
          "name": "to",
          "type": "address"
        },
        {
          "internalType": "uint256",
          "name": "tokenId",
          "type": "uint256"
        }
      ],
      "name": "safeTransferFrom",
      "outputs": [],
      "stateMutability": "nonpayable",
      "type": "function"
    },
    {
      "inputs": [
        {
          "internalType": "address",
          "name": "from",
          "type": "address"
        },
        {
          "internalType": "address",
          "name": "to",
          "type": "address"
        },
        {
          "internalType": "uint256",
          "name": "tokenId",
          "type": "uint256"
        },
        {
          "internalType": "bytes",
          "name": "data",
          "type": "bytes"
        }
      ],
      "name": "safeTransferFrom",
      "outputs": [],
      "stateMutability": "nonpayable",
      "type": "function"
    },
    {
      "inputs": [
        {
          "internalType": "address",
          "name": "operator",
          "type": "address"
        },
        {
          "internalType": "bool",
          "name": "approved",
          "type": "bool"
        }
      ],
      "name": "setApprovalForAll",
      "outputs": [],
      "stateMutability": "nonpayable",
      "type": "function"
    },
    {
      "inputs": [
        {
          "internalType": "string",
          "name": "baseURI",
          "type": "string"
        }
      ],
      "name": "setBaseURI",
      "outputs": [],
      "stateMutability": "nonpayable",
      "type": "function"
    },
    {
      "inputs": [
        {
          "internalType": "uint256",
          "name": "newMax",
          "type": "uint256"
        }
      ],
      "name": "setMaxAssetsPerWrap",
      "outputs": [],
      "stateMutability": "nonpayable",
      "type": "function"
    },
    {
      "inputs": [
        {
          "internalType": "bool",
          "name": "_paused",
          "type": "bool"
        }
      ],
      "name": "setPaused",
      "outputs": [],
      "stateMutability": "nonpayable",
      "type": "function"
    },
    {
      "inputs": [
        {
          "internalType": "address",
          "name": "_newWethTokenAddress",
          "type": "address"
        }
      ],
      "name": "setWethAddress",
      "outputs": [],
      "stateMutability": "nonpayable",
      "type": "function"
    },
    {
      "inputs": [
        {
          "internalType": "uint256",
          "name": "newFee",
          "type": "uint256"
        }
      ],
      "name": "setWrapFee",
      "outputs": [],
      "stateMutability": "nonpayable",
      "type": "function"
    },
    {
      "inputs": [
        {
          "internalType": "bytes4",
          "name": "interfaceId",
          "type": "bytes4"
        }
      ],
      "name": "supportsInterface",
      "outputs": [
        {
          "internalType": "bool",
          "name": "",
          "type": "bool"
        }
      ],
      "stateMutability": "view",
      "type": "function"
    },
    {
      "inputs": [],
      "name": "symbol",
      "outputs": [
        {
          "internalType": "string",
          "name": "",
          "type": "string"
        }
      ],
      "stateMutability": "view",
      "type": "function"
    },
    {
      "inputs": [
        {
          "internalType": "uint256",
          "name": "tokenId",
          "type": "uint256"
        }
      ],
      "name": "tokenURI",
      "outputs": [
        {
          "internalType": "string",
          "name": "",
          "type": "string"
        }
      ],
      "stateMutability": "view",
      "type": "function"
    },
    {
      "inputs": [
        {
          "internalType": "address",
          "name": "from",
          "type": "address"
        },
        {
          "internalType": "address",
          "name": "to",
          "type": "address"
        },
        {
          "internalType": "uint256",
          "name": "tokenId",
          "type": "uint256"
        }
      ],
      "name": "transferFrom",
      "outputs": [],
      "stateMutability": "nonpayable",
      "type": "function"
    },
    {
      "inputs": [
        {
          "internalType": "address",
          "name": "newOwner",
          "type": "address"
        }
      ],
      "name": "transferOwnership",
      "outputs": [],
      "stateMutability": "nonpayable",
      "type": "function"
    },
    {
      "inputs": [
        {
          "internalType": "uint256",
          "name": "wrapperId",
          "type": "uint256"
        }
      ],
      "name": "unwrap",
      "outputs": [],
      "stateMutability": "nonpayable",
      "type": "function"
    },
    {
      "inputs": [],
      "name": "wethTokenAddress",
      "outputs": [
        {
          "internalType": "address",
          "name": "",
          "type": "address"
        }
      ],
      "stateMutability": "view",
      "type": "function"
    },
    {
      "inputs": [],
      "name": "withdrawETH",
      "outputs": [],
      "stateMutability": "nonpayable",
      "type": "function"
    },
    {
      "inputs": [
        {
          "internalType": "address[]",
          "name": "tokenAddresses",
          "type": "address[]"
        },
        {
          "internalType": "uint256[]",
          "name": "ids",
          "type": "uint256[]"
        },
        {
          "internalType": "uint256[]",
          "name": "amounts",
          "type": "uint256[]"
        },
        {
          "internalType": "bytes[]",
          "name": "data",
          "type": "bytes[]"
        }
      ],
      "name": "wrapERC1155s",
      "outputs": [
        {
          "internalType": "uint256",
          "name": "",
          "type": "uint256"
        }
      ],
      "stateMutability": "payable",
      "type": "function"
    },
    {
      "inputs": [],
      "name": "wrapFee",
      "outputs": [
        {
          "internalType": "uint256",
          "name": "",
          "type": "uint256"
        }
      ],
      "stateMutability": "view",
      "type": "function"
    },
    {
      "inputs": [
        {
          "internalType": "address[]",
          "name": "nftAddresses",
          "type": "address[]"
        },
        {
          "internalType": "uint256[]",
          "name": "tokenIds",
          "type": "uint256[]"
        }
      ],
      "name": "wrapNFTs",
      "outputs": [
        {
          "internalType": "uint256",
          "name": "",
          "type": "uint256"
        }
      ],
      "stateMutability": "payable",
      "type": "function"
    },
    {
      "inputs": [
        {
          "internalType": "uint256[]",
          "name": "wethAmounts",
          "type": "uint256[]"
        }
      ],
      "name": "wrapWETHTokens",
      "outputs": [
        {
          "internalType": "uint256",
          "name": "",
          "type": "uint256"
        }
      ],
      "stateMutability": "payable",
      "type": "function"
    }
  ],
  "bytecode": "0x60806040523480156200001157600080fd5b5060405162003d7b38038062003d7b83398101604081905262000034916200016e565b806040518060400160405280600d81526020016c20b9b9b2ba102bb930b83832b960991b8152506040518060400160405280600681526020016504153575241560d41b81525081600090816200008b919062000245565b5060016200009a828262000245565b5050506001600160a01b038116620000cc57604051631e4fbdf760e01b81526000600482015260240160405180910390fd5b620000d7816200011c565b506001600855604080516020810190915260008152600e90620000fb908262000245565b5050600c805460ff19169055655af3107a4000600a556005600b5562000311565b600780546001600160a01b038381166001600160a01b0319831681179093556040519116919082907f8be0079c531659141344cd1fd0a4f28419497f9722a3daafe3b4186f6b6457e090600090a35050565b6000602082840312156200018157600080fd5b81516001600160a01b03811681146200019957600080fd5b9392505050565b634e487b7160e01b600052604160045260246000fd5b600181811c90821680620001cb57607f821691505b602082108103620001ec57634e487b7160e01b600052602260045260246000fd5b50919050565b601f8211156200024057600081815260208120601f850160051c810160208610156200021b5750805b601f850160051c820191505b818110156200023c5782815560010162000227565b5050505b505050565b81516001600160401b03811115620002615762000261620001a0565b6200027981620002728454620001b6565b84620001f2565b602080601f831160018114620002b15760008415620002985750858301515b600019600386901b1c1916600185901b1785556200023c565b600085815260208120601f198616915b82811015620002e257888601518255948401946001909101908401620002c1565b5085821015620003015787850151600019600388901b60f8161c191681555b5050505050600190811b01905550565b613a5a80620003216000396000f3fe6080604052600436106102045760003560e01c8063715018a611610118578063c2c569b1116100a0578063e086e5ec1161006f578063e086e5ec146105dc578063e985e9c5146105f1578063f23a6e6114610611578063f2fde38b14610631578063f98fd3641461065157600080fd5b8063c2c569b114610567578063c87b56dd14610587578063cd92586e146105a7578063de0e9a3e146105bc57600080fd5b8063a22cb465116100e7578063a22cb465146104d4578063a96e2423146104f4578063ae6d625514610514578063b88d4fde14610527578063bc197c811461054757600080fd5b8063715018a61461046c5780638800e0c6146104815780638da5cb5b146104a157806395d89b41146104bf57600080fd5b806323b872dd1161019b57806355f804b31161016a57806355f804b3146103dc5780635c975abb146103fc5780636352211e146104165780636c64e1fc1461043657806370a082311461044c57600080fd5b806323b872dd146103595780632aafb3eb146103795780632ffcf8061461038f57806342842e0e146103bc57600080fd5b80630f9dad71116101d75780630f9dad71146102ba578063150b7a02146102df57806316c38b3c146103185780631d33e6dc1461033857600080fd5b806301ffc9a71461020957806306fdde031461023e578063081812fc14610260578063095ea7b314610298575b600080fd5b34801561021557600080fd5b50610229610224366004612ee6565b610664565b60405190151581526020015b60405180910390f35b34801561024a57600080fd5b5061025361068f565b6040516102359190612f53565b34801561026c57600080fd5b5061028061027b366004612f66565b610721565b6040516001600160a01b039091168152602001610235565b3480156102a457600080fd5b506102b86102b3366004612f9b565b61074a565b005b3480156102c657600080fd5b50600c546102809061010090046001600160a01b031681565b3480156102eb57600080fd5b506102ff6102fa36600461300d565b610759565b6040516001600160e01b03199091168152602001610235565b34801561032457600080fd5b506102b861033336600461308b565b6107d9565b61034b6103463660046130ea565b610829565b604051908152602001610235565b34801561036557600080fd5b506102b86103743660046131ad565b610e75565b34801561038557600080fd5b5061034b600a5481565b34801561039b57600080fd5b506103af6103aa366004612f66565b610f00565b6040516102359190613221565b3480156103c857600080fd5b506102b86103d73660046131ad565b611029565b3480156103e857600080fd5b506102b86103f7366004613297565b611049565b34801561040857600080fd5b50600c546102299060ff1681565b34801561042257600080fd5b50610280610431366004612f66565b61109c565b34801561044257600080fd5b5061034b600b5481565b34801561045857600080fd5b5061034b6104673660046132d8565b6110a7565b34801561047857600080fd5b506102b86110ef565b34801561048d57600080fd5b506102b861049c366004612f66565b611103565b3480156104ad57600080fd5b506007546001600160a01b0316610280565b3480156104cb57600080fd5b506102536111ea565b3480156104e057600080fd5b506102b86104ef3660046132f3565b6111f9565b34801561050057600080fd5b506102b861050f3660046132d8565b611204565b61034b610522366004613326565b6112b4565b34801561053357600080fd5b506102b86105423660046133a7565b611722565b34801561055357600080fd5b506102ff610562366004613482565b61173a565b34801561057357600080fd5b506102b8610582366004612f66565b6117c4565b34801561059357600080fd5b506102536105a2366004612f66565b611801565b3480156105b357600080fd5b5061034b603281565b3480156105c857600080fd5b506102b86105d7366004612f66565b61190a565b3480156105e857600080fd5b506102b8611d52565b3480156105fd57600080fd5b5061022961060c366004613528565b611ea4565b34801561061d57600080fd5b506102ff61062c366004613552565b611ed2565b34801561063d57600080fd5b506102b861064c3660046132d8565b611f4f565b61034b61065f3660046135c9565b611f8a565b60006001600160e01b03198216632483248360e11b14806106895750610689826123c7565b92915050565b60606000805461069e906135fe565b80601f01602080910402602001604051908101604052809291908181526020018280546106ca906135fe565b80156107175780601f106106ec57610100808354040283529160200191610717565b820191906000526020600020905b8154815290600101906020018083116106fa57829003601f168201915b5050505050905090565b600061072c82612417565b506000828152600460205260409020546001600160a01b0316610689565b610755828233612450565b5050565b6000336107c75760405162461bcd60e51b815260206004820152603160248201527f4552433732313a207472616e736665722066726f6d207a65726f2061646472656044820152701cdcc81d1bdad95b8818dbdb9d1c9858dd607a1b60648201526084015b60405180910390fd5b50630a85bd0160e11b95945050505050565b6107e161245d565b600c805460ff19168215159081179091556040519081527fcbe1b789cda412d9e1c647ed03d0c71e2f71484be36f9ca2b2a346b29edf1b70906020015b60405180910390a150565b600061083361248a565b600c5460ff16156108565760405162461bcd60e51b81526004016107be90613638565b600a5434146108775760405162461bcd60e51b81526004016107be90613664565b87806108d15760405162461bcd60e51b815260206004820152602360248201527f4d757374206c6f636b206174206c65617374206f6e652045524331313535206960448201526274656d60e81b60648201526084016107be565b8087146109205760405162461bcd60e51b815260206004820152601e60248201527f4164647265737320616e6420696420617272617973206d69736d61746368000060448201526064016107be565b80851461097a5760405162461bcd60e51b815260206004820152602260248201527f4164647265737320616e6420616d6f756e7420617272617973206d69736d61746044820152610c6d60f31b60648201526084016107be565b82156109cf578083146109cf5760405162461bcd60e51b815260206004820181905260248201527f4164647265737320616e64206461746120617272617973206d69736d6174636860448201526064016107be565b600b548111156109f15760405162461bcd60e51b81526004016107be9061369b565b60098054906000610a01836136d2565b90915550506009546000826001600160401b03811115610a2357610a23613391565b604051908082528060200260200182016040528015610a8057816020015b610a6d604080516080810190915260008082526020820190815260200160008152602001600081525090565b815260200190600190039081610a415790505b50905060005b83811015610cf3576000898983818110610aa257610aa26136f9565b9050602002013511610b085760405162461bcd60e51b815260206004820152602960248201527f43616e6e6f74206c6f636b207a65726f20616d6f756e74206f66204552433131604482015268353520746f6b656e7360b81b60648201526084016107be565b60008d8d83818110610b1c57610b1c6136f9565b9050602002016020810190610b3191906132d8565b9050806001600160a01b031663f242432a33308f8f87818110610b5657610b566136f9565b905060200201358e8e88818110610b6f57610b6f6136f9565b9050602002013560008e8e905011610b965760405180602001604052806000815250610bef565b8d8d89818110610ba857610ba86136f9565b9050602002810190610bba919061370f565b8080601f0160208091040260200160405190810160405280939291908181526020018383808284376000920191909152505050505b6040518663ffffffff1660e01b8152600401610c0f959493929190613755565b600060405180830381600087803b158015610c2957600080fd5b505af1158015610c3d573d6000803e3d6000fd5b5050505060405180608001604052808f8f85818110610c5e57610c5e6136f9565b9050602002016020810190610c7391906132d8565b6001600160a01b03168152602001600281526020018b8b85818110610c9a57610c9a6136f9565b9050602002013581526020018d8d85818110610cb857610cb86136f9565b90506020020135815250838381518110610cd457610cd46136f9565b6020026020010181905250508080610ceb906136d2565b915050610a86565b50610cfe82826124b4565b610d08338361257d565b6000600e8054610d17906135fe565b80601f0160208091040260200160405190810160405280929190818152602001828054610d43906135fe565b8015610d905780601f10610d6557610100808354040283529160200191610d90565b820191906000526020600020905b815481529060010190602001808311610d7357829003601f168201915b50505050509050600081511115610dd457610dd48382610daf86612597565b604051602001610dc092919061379a565b604051602081830303815290604052612629565b336001600160a01b0316837fe5659e3d8b2005be59e17040c1e9f5e055055220567297df1f41608dc4a632ac6002604051610e0f91906137c9565b60405180910390a3336001600160a01b0316837f5408afa551a788a1c873b54c1bb0b9380b9d5bd2241dbe6e8434ab965ddb036e84604051610e519190613221565b60405180910390a3509092505050610e696001600855565b98975050505050505050565b6001600160a01b038216610e9f57604051633250574960e11b8152600060048201526024016107be565b6000610eac83833361264a565b9050836001600160a01b0316816001600160a01b031614610efa576040516364283d7b60e01b81526001600160a01b03808616600483015260248201849052821660448201526064016107be565b50505050565b6000818152600260205260409020546060906001600160a01b0316610f675760405162461bcd60e51b815260206004820152601a60248201527f57726170706572204e465420646f6573206e6f7420657869737400000000000060448201526064016107be565b6000828152600d6020908152604080832080548251818502810185019093528083529193909284015b8282101561101e57600084815260209081902060408051608081019091526003850290910180546001600160a01b03811683529192909190830190600160a01b900460ff166002811115610fe657610fe66131e9565b6002811115610ff757610ff76131e9565b81526020016001820154815260200160028201548152505081526020019060010190610f90565b505050509050919050565b61104483838360405180602001604052806000815250611722565b505050565b61105161245d565b600e61105e82848361381d565b507f6741b2fc379fad678116fe3d4d4b9a1a184ab53ba36b86ad0fa66340b1ab41ad82826040516110909291906138dc565b60405180910390a15050565b600061068982612417565b60006001600160a01b0382166110d3576040516322718ad960e21b8152600060048201526024016107be565b506001600160a01b031660009081526003602052604090205490565b6110f761245d565b6111016000612743565b565b61110b61245d565b6000811161116b5760405162461bcd60e51b815260206004820152602760248201527f4d6178696d756d2076616c7565206d7573742062652067726561746572207468604482015266616e207a65726f60c81b60648201526084016107be565b60328111156111b55760405162461bcd60e51b815260206004820152601660248201527509ac2f0d2daeada40ecc2d8eaca40e8dede40d0d2ced60531b60448201526064016107be565b600b8190556040518181527f16eee5b9ba2be8648b3f449b0795986c931225b62b6709c6f9ee5cc9f17be24e9060200161081e565b60606001805461069e906135fe565b610755338383612795565b61120c61245d565b6001600160a01b0381166112595760405162461bcd60e51b8152602060048201526014602482015273496e76616c69642057455448206164647265737360601b60448201526064016107be565b600c80546001600160a01b03838116610100818102610100600160a81b03198516179094556040519390920416918291907f5d7a3931a0c2a45a14c401cc6bdf8ba68fdb6478d420e05389d2d7cab7e1b78090600090a35050565b60006112be61248a565b600c5460ff16156112e15760405162461bcd60e51b81526004016107be90613638565b600a5434146113025760405162461bcd60e51b81526004016107be90613664565b838281146113625760405162461bcd60e51b815260206004820152602760248201527f4164647265737320616e6420746f6b656e49642061727261797320646f206e6f6044820152660e840dac2e8c6d60cb1b60648201526084016107be565b600081116113b25760405162461bcd60e51b815260206004820152601a60248201527f4d757374206c6f636b206174206c65617374206f6e65204e465400000000000060448201526064016107be565b600b548111156113d45760405162461bcd60e51b81526004016107be9061369b565b600980549060006113e4836136d2565b90915550506009546000826001600160401b0381111561140657611406613391565b60405190808252806020026020018201604052801561146357816020015b611450604080516080810190915260008082526020820190815260200160008152602001600081525090565b8152602001906001900390816114245790505b50905060005b838110156115c9576000898983818110611485576114856136f9565b905060200201602081019061149a91906132d8565b9050806001600160a01b03166342842e0e33308b8b878181106114bf576114bf6136f9565b6040516001600160e01b031960e088901b1681526001600160a01b03958616600482015294909316602485015250602090910201356044820152606401600060405180830381600087803b15801561151657600080fd5b505af115801561152a573d6000803e3d6000fd5b5050505060405180608001604052808b8b8581811061154b5761154b6136f9565b905060200201602081019061156091906132d8565b6001600160a01b03168152602001600181526020016001815260200189898581811061158e5761158e6136f9565b905060200201358152508383815181106115aa576115aa6136f9565b60200260200101819052505080806115c1906136d2565b915050611469565b506115d482826124b4565b6115de338361257d565b6000600e80546115ed906135fe565b80601f0160208091040260200160405190810160405280929190818152602001828054611619906135fe565b80156116665780601f1061163b57610100808354040283529160200191611666565b820191906000526020600020905b81548152906001019060200180831161164957829003601f168201915b50505050509050600081511115611685576116858382610daf86612597565b336001600160a01b0316837fe5659e3d8b2005be59e17040c1e9f5e055055220567297df1f41608dc4a632ac60016040516116c091906137c9565b60405180910390a3336001600160a01b0316837f5408afa551a788a1c873b54c1bb0b9380b9d5bd2241dbe6e8434ab965ddb036e846040516117029190613221565b60405180910390a350909250505061171a6001600855565b949350505050565b61172d848484610e75565b610efa3385858585612834565b6000336117af5760405162461bcd60e51b815260206004820152603860248201527f455243313135353a206261746368207472616e736665722066726f6d207a657260448201527f6f206164647265737320746f6b656e20636f6e7472616374000000000000000060648201526084016107be565b5063bc197c8160e01b98975050505050505050565b6117cc61245d565b600a8190556040518181527fcef18e44ed7477fd12a8711ab80989ee8a8ebbe55fc4c8cfa1b1b34dde3313e49060200161081e565b606061180c82612417565b5060008281526006602052604081208054611826906135fe565b80601f0160208091040260200160405190810160405280929190818152602001828054611852906135fe565b801561189f5780601f106118745761010080835404028352916020019161189f565b820191906000526020600020905b81548152906001019060200180831161188257829003601f168201915b5050505050905060006118bd60408051602081019091526000815290565b905080516000036118cf575092915050565b8151156119015780826040516020016118e992919061379a565b60405160208183030381529060405292505050919050565b61171a8461295f565b61191261248a565b600c5460ff16156119355760405162461bcd60e51b81526004016107be90613638565b6000818152600260205260409020546001600160a01b03166119995760405162461bcd60e51b815260206004820152601a60248201527f57726170706572204e465420646f6573206e6f7420657869737400000000000060448201526064016107be565b60006119a48261109c565b90506001600160a01b03811633146119fe5760405162461bcd60e51b815260206004820152601d60248201527f4f6e6c7920746865204e4654206f776e65722063616e20756e7772617000000060448201526064016107be565b6000828152600d6020908152604080832080548251818502810185019093528083529192909190849084015b82821015611ab857600084815260209081902060408051608081019091526003850290910180546001600160a01b03811683529192909190830190600160a01b900460ff166002811115611a8057611a806131e9565b6002811115611a9157611a916131e9565b81526020016001820154815260200160028201548152505081526020019060010190611a2a565b50508251929350505080611b1f5760405162461bcd60e51b815260206004820152602860248201527f54686973207772617070657220646f6573206e6f7420636f6e7461696e20616e604482015267792061737365747360c01b60648201526084016107be565b60005b81811015611ceb576000838281518110611b3e57611b3e6136f9565b6020026020010151905060006002811115611b5b57611b5b6131e9565b81602001516002811115611b7157611b716131e9565b03611b995780516040820151611b93906001600160a01b0383169088906129d4565b50611cd8565b600181602001516002811115611bb157611bb16131e9565b03611c2d5780516060820151604051632142170760e11b81523060048201526001600160a01b0388811660248301526044820192909252908216906342842e0e90606401600060405180830381600087803b158015611c0f57600080fd5b505af1158015611c23573d6000803e3d6000fd5b5050505050611cd8565b600281602001516002811115611c4557611c456131e9565b03611cd857805160608201516040808401519051637921219560e11b81523060048201526001600160a01b0389811660248301526044820193909352606481019190915260a06084820152600060a48201529082169063f242432a9060c401600060405180830381600087803b158015611cbe57600080fd5b505af1158015611cd2573d6000803e3d6000fd5b50505050505b5080611ce3816136d2565b915050611b22565b506000848152600d60205260408120611d0391612e83565b611d0c84612a33565b6040516001600160a01b0384169085907f34589a6314a7f51ee9ac312de3a5e9f83095ff34076e1c6d9c77f1559485bcf190600090a3505050611d4f6001600855565b50565b611d5a61245d565b611d6261248a565b4780611da55760405162461bcd60e51b81526020600482015260126024820152714e6f2045544820746f20776974686472617760701b60448201526064016107be565b6000611db96007546001600160a01b031690565b90506000816001600160a01b03168360405160006040518083038185875af1925050503d8060008114611e08576040519150601f19603f3d011682016040523d82523d6000602084013e611e0d565b606091505b5050905080611e545760405162461bcd60e51b8152602060048201526013602482015272115512081d1c985b9cd9995c8819985a5b1959606a1b60448201526064016107be565b816001600160a01b03167f94b2de810873337ed265c5f8cf98c9cffefa06b8607f9a2f1fbaebdfbcfbef1c84604051611e8f91815260200190565b60405180910390a25050506111016001600855565b6001600160a01b03918216600090815260056020908152604080832093909416825291909152205460ff1690565b600033611f3c5760405162461bcd60e51b815260206004820152603260248201527f455243313135353a207472616e736665722066726f6d207a65726f2061646472604482015271195cdcc81d1bdad95b8818dbdb9d1c9858dd60721b60648201526084016107be565b5063f23a6e6160e01b9695505050505050565b611f5761245d565b6001600160a01b038116611f8157604051631e4fbdf760e01b8152600060048201526024016107be565b611d4f81612743565b6000611f9461248a565b600c5460ff1615611fb75760405162461bcd60e51b81526004016107be90613638565b600c5461010090046001600160a01b031661200b5760405162461bcd60e51b815260206004820152601460248201527315d15512081859191c995cdcc81b9bdd081cd95d60621b60448201526064016107be565b600a54341461202c5760405162461bcd60e51b81526004016107be90613664565b81806120855760405162461bcd60e51b815260206004820152602260248201527f4d757374206c6f636b206174206c65617374206f6e65205745544820616d6f756044820152611b9d60f21b60648201526084016107be565b600b548111156120a75760405162461bcd60e51b81526004016107be9061369b565b600980549060006120b7836136d2565b90915550506009546000826001600160401b038111156120d9576120d9613391565b60405190808252806020026020018201604052801561213657816020015b612123604080516080810190915260008082526020820190815260200160008152602001600081525090565b8152602001906001900390816120f75790505b50600c5490915061010090046001600160a01b03168060005b8581101561227457600089898381811061216b5761216b6136f9565b90506020020135116121c95760405162461bcd60e51b815260206004820152602160248201527f43616e6e6f74206c6f636b207a65726f20616d6f756e74206f6620746f6b656e6044820152607360f81b60648201526084016107be565b61220133308b8b858181106121e0576121e06136f9565b90506020020135856001600160a01b0316612a6e909392919063ffffffff16565b604080516080810182526001600160a01b0385168152600060208201529081018a8a84818110612233576122336136f9565b9050602002013581526020016000815250848281518110612256576122566136f9565b6020026020010181905250808061226c906136d2565b91505061214f565b5061227f84846124b4565b612289338561257d565b6000600e8054612298906135fe565b80601f01602080910402602001604051908101604052809291908181526020018280546122c4906135fe565b80156123115780601f106122e657610100808354040283529160200191612311565b820191906000526020600020905b8154815290600101906020018083116122f457829003601f168201915b50505050509050600081511115612330576123308582610daf88612597565b336001600160a01b0316857fe5659e3d8b2005be59e17040c1e9f5e055055220567297df1f41608dc4a632ac600060405161236b91906137c9565b60405180910390a3336001600160a01b0316857f5408afa551a788a1c873b54c1bb0b9380b9d5bd2241dbe6e8434ab965ddb036e866040516123ad9190613221565b60405180910390a350929450505050506106896001600855565b60006001600160e01b031982166380ac58cd60e01b14806123f857506001600160e01b03198216635b5e139f60e01b145b8061068957506301ffc9a760e01b6001600160e01b0319831614610689565b6000818152600260205260408120546001600160a01b03168061068957604051637e27328960e01b8152600481018490526024016107be565b6110448383836001612aa7565b6007546001600160a01b031633146111015760405163118cdaa760e01b81523360048201526024016107be565b6002600854036124ad57604051633ee5aeb560e01b815260040160405180910390fd5b6002600855565b805160005b81811015610efa576000848152600d6020526040902083518490839081106124e3576124e36136f9565b6020908102919091018101518254600181018455600093845292829020815160039094020180546001600160a01b039094166001600160a01b0319851681178255928201519193909283916001600160a81b03191617600160a01b836002811115612550576125506131e9565b02179055506040820151600182015560609091015160029091015580612575816136d2565b9150506124b9565b610755828260405180602001604052806000815250612bad565b606060006125a483612bc5565b60010190506000816001600160401b038111156125c3576125c3613391565b6040519080825280601f01601f1916602001820160405280156125ed576020820181803683370190505b5090508181016020015b600019016f181899199a1a9b1b9c1cb0b131b232b360811b600a86061a8153600a85049450846125f757509392505050565b6000600e8054612638906135fe565b90501115610755576107558282612c9d565b6000828152600260205260408120546001600160a01b039081169083161561267757612677818486612ce6565b6001600160a01b038116156126b557612694600085600080612aa7565b6001600160a01b038116600090815260036020526040902080546000190190555b6001600160a01b038516156126e4576001600160a01b0385166000908152600360205260409020805460010190555b60008481526002602052604080822080546001600160a01b0319166001600160a01b0389811691821790925591518793918516917fddf252ad1be2c89b69c2b068fc378daa952ba7f163c4a11628f55a4df523b3ef91a4949350505050565b600780546001600160a01b038381166001600160a01b0319831681179093556040519116919082907f8be0079c531659141344cd1fd0a4f28419497f9722a3daafe3b4186f6b6457e090600090a35050565b6001600160a01b0382166127c757604051630b61174360e31b81526001600160a01b03831660048201526024016107be565b6001600160a01b03838116600081815260056020908152604080832094871680845294825291829020805460ff191686151590811790915591519182527f17307eab39ab6107e8899845ad3d59bd9653f200f220920489ca2b5937696c31910160405180910390a3505050565b6001600160a01b0383163b1561295857604051630a85bd0160e11b81526001600160a01b0384169063150b7a029061287690889088908790879060040161390b565b6020604051808303816000875af19250505080156128b1575060408051601f3d908101601f191682019092526128ae91810190613948565b60015b61291a573d8080156128df576040519150601f19603f3d011682016040523d82523d6000602084013e6128e4565b606091505b50805160000361291257604051633250574960e11b81526001600160a01b03851660048201526024016107be565b805181602001fd5b6001600160e01b03198116630a85bd0160e11b1461295657604051633250574960e11b81526001600160a01b03851660048201526024016107be565b505b5050505050565b606061296a82612417565b50600061298260408051602081019091526000815290565b905060008151116129a257604051806020016040528060008152506129cd565b806129ac84612597565b6040516020016129bd92919061379a565b6040516020818303038152906040525b9392505050565b6040516001600160a01b0383811660248301526044820183905261104491859182169063a9059cbb906064015b604051602081830303815290604052915060e01b6020820180516001600160e01b038381831617835250505050612d4a565b6000612a42600083600061264a565b90506001600160a01b03811661075557604051637e27328960e01b8152600481018390526024016107be565b6040516001600160a01b038481166024830152838116604483015260648201839052610efa9186918216906323b872dd90608401612a01565b8080612abb57506001600160a01b03821615155b15612b7d576000612acb84612417565b90506001600160a01b03831615801590612af75750826001600160a01b0316816001600160a01b031614155b8015612b0a5750612b088184611ea4565b155b15612b335760405163a9fbf51f60e01b81526001600160a01b03841660048201526024016107be565b8115612b7b5783856001600160a01b0316826001600160a01b03167f8c5be1e5ebec7d5bd14f71427d1e84f3dd0314c0f7b2291e5b200ac8c7c3b92560405160405180910390a45b505b5050600090815260046020526040902080546001600160a01b0319166001600160a01b0392909216919091179055565b612bb78383612dbb565b611044336000858585612834565b60008072184f03e93ff9f4daa797ed6e38ed64bf6a1f0160401b8310612c045772184f03e93ff9f4daa797ed6e38ed64bf6a1f0160401b830492506040015b6d04ee2d6d415b85acef81000000008310612c30576d04ee2d6d415b85acef8100000000830492506020015b662386f26fc100008310612c4e57662386f26fc10000830492506010015b6305f5e1008310612c66576305f5e100830492506008015b6127108310612c7a57612710830492506004015b60648310612c8c576064830492506002015b600a83106106895760010192915050565b6000828152600660205260409020612cb58282613965565b506040518281527ff8e1a15aba9398e019f0b49df1a4fde98ee17ae345cb5f6b5e2c27f5033e8ce790602001611090565b612cf1838383612e20565b611044576001600160a01b038316612d1f57604051637e27328960e01b8152600481018290526024016107be565b60405163177e802f60e01b81526001600160a01b0383166004820152602481018290526044016107be565b600080602060008451602086016000885af180612d6d576040513d6000823e3d81fd5b50506000513d91508115612d85578060011415612d92565b6001600160a01b0384163b155b15610efa57604051635274afe760e01b81526001600160a01b03851660048201526024016107be565b6001600160a01b038216612de557604051633250574960e11b8152600060048201526024016107be565b6000612df38383600061264a565b90506001600160a01b03811615611044576040516339e3563760e11b8152600060048201526024016107be565b60006001600160a01b0383161580159061171a5750826001600160a01b0316846001600160a01b03161480612e5a5750612e5a8484611ea4565b8061171a5750506000908152600460205260409020546001600160a01b03908116911614919050565b5080546000825560030290600052602060002090810190611d4f91905b80821115612ecc5780546001600160a81b03191681556000600182018190556002820155600301612ea0565b5090565b6001600160e01b031981168114611d4f57600080fd5b600060208284031215612ef857600080fd5b81356129cd81612ed0565b60005b83811015612f1e578181015183820152602001612f06565b50506000910152565b60008151808452612f3f816020860160208601612f03565b601f01601f19169290920160200192915050565b6020815260006129cd6020830184612f27565b600060208284031215612f7857600080fd5b5035919050565b80356001600160a01b0381168114612f9657600080fd5b919050565b60008060408385031215612fae57600080fd5b612fb783612f7f565b946020939093013593505050565b60008083601f840112612fd757600080fd5b5081356001600160401b03811115612fee57600080fd5b60208301915083602082850101111561300657600080fd5b9250929050565b60008060008060006080868803121561302557600080fd5b61302e86612f7f565b945061303c60208701612f7f565b93506040860135925060608601356001600160401b0381111561305e57600080fd5b61306a88828901612fc5565b969995985093965092949392505050565b80358015158114612f9657600080fd5b60006020828403121561309d57600080fd5b6129cd8261307b565b60008083601f8401126130b857600080fd5b5081356001600160401b038111156130cf57600080fd5b6020830191508360208260051b850101111561300657600080fd5b6000806000806000806000806080898b03121561310657600080fd5b88356001600160401b038082111561311d57600080fd5b6131298c838d016130a6565b909a50985060208b013591508082111561314257600080fd5b61314e8c838d016130a6565b909850965060408b013591508082111561316757600080fd5b6131738c838d016130a6565b909650945060608b013591508082111561318c57600080fd5b506131998b828c016130a6565b999c989b5096995094979396929594505050565b6000806000606084860312156131c257600080fd5b6131cb84612f7f565b92506131d960208501612f7f565b9150604084013590509250925092565b634e487b7160e01b600052602160045260246000fd5b6003811061321d57634e487b7160e01b600052602160045260246000fd5b9052565b602080825282518282018190526000919060409081850190868401855b8281101561328a57815180516001600160a01b0316855286810151613265888701826131ff565b508086015185870152606090810151908501526080909301929085019060010161323e565b5091979650505050505050565b600080602083850312156132aa57600080fd5b82356001600160401b038111156132c057600080fd5b6132cc85828601612fc5565b90969095509350505050565b6000602082840312156132ea57600080fd5b6129cd82612f7f565b6000806040838503121561330657600080fd5b61330f83612f7f565b915061331d6020840161307b565b90509250929050565b6000806000806040858703121561333c57600080fd5b84356001600160401b038082111561335357600080fd5b61335f888389016130a6565b9096509450602087013591508082111561337857600080fd5b50613385878288016130a6565b95989497509550505050565b634e487b7160e01b600052604160045260246000fd5b600080600080608085870312156133bd57600080fd5b6133c685612f7f565b93506133d460208601612f7f565b92506040850135915060608501356001600160401b03808211156133f757600080fd5b818701915087601f83011261340b57600080fd5b81358181111561341d5761341d613391565b604051601f8201601f19908116603f0116810190838211818310171561344557613445613391565b816040528281528a602084870101111561345e57600080fd5b82602086016020830137600060208483010152809550505050505092959194509250565b60008060008060008060008060a0898b03121561349e57600080fd5b6134a789612f7f565b97506134b560208a01612f7f565b965060408901356001600160401b03808211156134d157600080fd5b6134dd8c838d016130a6565b909850965060608b01359150808211156134f657600080fd5b6135028c838d016130a6565b909650945060808b013591508082111561351b57600080fd5b506131998b828c01612fc5565b6000806040838503121561353b57600080fd5b61354483612f7f565b915061331d60208401612f7f565b60008060008060008060a0878903121561356b57600080fd5b61357487612f7f565b955061358260208801612f7f565b9450604087013593506060870135925060808701356001600160401b038111156135ab57600080fd5b6135b789828a01612fc5565b979a9699509497509295939492505050565b600080602083850312156135dc57600080fd5b82356001600160401b038111156135f257600080fd5b6132cc858286016130a6565b600181811c9082168061361257607f821691505b60208210810361363257634e487b7160e01b600052602260045260246000fd5b50919050565b60208082526012908201527110dbdb9d1c9858dd081a5cc81c185d5cd95960721b604082015260600190565b60208082526018908201527f4d7573742073656e642065786163742077726170206665650000000000000000604082015260600190565b6020808252601e908201527f547279696e6720746f206c6f636b20746f6f206d616e79206173736574730000604082015260600190565b6000600182016136f257634e487b7160e01b600052601160045260246000fd5b5060010190565b634e487b7160e01b600052603260045260246000fd5b6000808335601e1984360301811261372657600080fd5b8301803591506001600160401b0382111561374057600080fd5b60200191503681900382131561300657600080fd5b6001600160a01b03868116825285166020820152604081018490526060810183905260a06080820181905260009061378f90830184612f27565b979650505050505050565b600083516137ac818460208801612f03565b8351908301906137c0818360208801612f03565b01949350505050565b6020810161068982846131ff565b601f82111561104457600081815260208120601f850160051c810160208610156137fe5750805b601f850160051c820191505b818110156129565782815560010161380a565b6001600160401b0383111561383457613834613391565b6138488361384283546135fe565b836137d7565b6000601f84116001811461387c57600085156138645750838201355b600019600387901b1c1916600186901b178355612958565b600083815260209020601f19861690835b828110156138ad578685013582556020948501946001909201910161388d565b50868210156138ca5760001960f88860031b161c19848701351681555b505060018560011b0183555050505050565b60208152816020820152818360408301376000818301604090810191909152601f909201601f19160101919050565b6001600160a01b038581168252841660208201526040810183905260806060820181905260009061393e90830184612f27565b9695505050505050565b60006020828403121561395a57600080fd5b81516129cd81612ed0565b81516001600160401b0381111561397e5761397e613391565b6139928161398c84546135fe565b846137d7565b602080601f8311600181146139c757600084156139af5750858301515b600019600386901b1c1916600185901b178555612956565b600085815260208120601f198616915b828110156139f6578886015182559484019460019091019084016139d7565b5085821015613a145787850151600019600388901b60f8161c191681555b5050505050600190811b0190555056fea264697066735822122084a9bfe392900eae6efa5a377b3e9be88f04207926bda8d585224ecdb8f555ee64736f6c63430008140033",
  "linkReferences": {},
  "deployedLinkReferences": {}
}