{
  "_format": "hh-sol-artifact-1",
  "contractName": "AssetWrapperMarketplace",
  "sourceName": "contracts/AssetWrapperMarketplace.sol",
  "abi": [
    {
      "inputs": [
        {
          "internalType": "address",
          "name": "_assetWrapperAddress",
          "type": "address"
        },
        {
          "internalType": "address",
          "name": "_wethTokenAddress",
          "type": "address"
        },
        {
          "internalType": "address payable",
          "name": "_initialFeeRecipient",
          "type": "address"
        },
        {
          "internalType": "uint256",
          "name": "_initialMarketplaceFeePercent",
          "type": "uint256"
        }
      ],
      "stateMutability": "nonpayable",
      "type": "constructor"
    },
    {
      "inputs": [
        {
          "internalType": "address",
          "name": "owner",
          "type": "address"
        }
      ],
      "name": "OwnableInvalidOwner",
      "type": "error"
    },
    {
      "inputs": [
        {
          "internalType": "address",
          "name": "account",
          "type": "address"
        }
      ],
      "name": "OwnableUnauthorizedAccount",
      "type": "error"
    },
    {
      "inputs": [],
      "name": "ReentrancyGuardReentrantCall",
      "type": "error"
    },
    {
      "anonymous": false,
      "inputs": [
        {
          "indexed": false,
          "internalType": "address",
          "name": "newRecipient",
          "type": "address"
        }
      ],
      "name": "FeeRecipientUpdated",
      "type": "event"
    },
    {
      "anonymous": false,
      "inputs": [
        {
          "indexed": true,
          "internalType": "uint256",
          "name": "listingId",
          "type": "uint256"
        },
        {
          "indexed": true,
          "internalType": "address",
          "name": "seller",
          "type": "address"
        },
        {
          "indexed": true,
          "internalType": "uint256",
          "name": "tokenId",
          "type": "uint256"
        },
        {
          "indexed": false,
          "internalType": "uint256",
          "name": "price",
          "type": "uint256"
        }
      ],
      "name": "ItemListed",
      "type": "event"
    },
    {
      "anonymous": false,
      "inputs": [
        {
          "indexed": true,
          "internalType": "uint256",
          "name": "listingId",
          "type": "uint256"
        },
        {
          "indexed": true,
          "internalType": "address",
          "name": "buyer",
          "type": "address"
        },
        {
          "indexed": true,
          "internalType": "address",
          "name": "seller",
          "type": "address"
        },
        {
          "indexed": false,
          "internalType": "uint256",
          "name": "tokenId",
          "type": "uint256"
        },
        {
          "indexed": false,
          "internalType": "uint256",
          "name": "price",
          "type": "uint256"
        },
        {
          "indexed": false,
          "internalType": "uint256",
          "name": "marketplaceFee",
          "type": "uint256"
        }
      ],
      "name": "ItemSold",
      "type": "event"
    },
    {
      "anonymous": false,
      "inputs": [
        {
          "indexed": true,
          "internalType": "uint256",
          "name": "listingId",
          "type": "uint256"
        },
        {
          "indexed": true,
          "internalType": "address",
          "name": "seller",
          "type": "address"
        },
        {
          "indexed": true,
          "internalType": "uint256",
          "name": "tokenId",
          "type": "uint256"
        }
      ],
      "name": "ListingCancelled",
      "type": "event"
    },
    {
      "anonymous": false,
      "inputs": [
        {
          "indexed": false,
          "internalType": "uint256",
          "name": "newFeePercent",
          "type": "uint256"
        }
      ],
      "name": "MarketplaceFeeUpdated",
      "type": "event"
    },
    {
      "anonymous": false,
      "inputs": [
        {
          "indexed": true,
          "internalType": "uint256",
          "name": "offerId",
          "type": "uint256"
        },
        {
          "indexed": true,
          "internalType": "address",
          "name": "originalOfferer",
          "type": "address"
        },
        {
          "indexed": true,
          "internalType": "address",
          "name": "originalTargetOwner",
          "type": "address"
        },
        {
          "indexed": false,
          "internalType": "address",
          "name": "offeredNFTContractAddress",
          "type": "address"
        },
        {
          "indexed": false,
          "internalType": "uint256",
          "name": "offeredNFTTokenId",
          "type": "uint256"
        },
        {
          "indexed": false,
          "internalType": "uint256",
          "name": "targetAssetWrapperTokenId",
          "type": "uint256"
        }
      ],
      "name": "NFTSwapOfferAccepted",
      "type": "event"
    },
    {
      "anonymous": false,
      "inputs": [
        {
          "indexed": true,
          "internalType": "uint256",
          "name": "offerId",
          "type": "uint256"
        },
        {
          "indexed": true,
          "internalType": "address",
          "name": "offerer",
          "type": "address"
        },
        {
          "indexed": false,
          "internalType": "uint256",
          "name": "targetAssetWrapperTokenId",
          "type": "uint256"
        }
      ],
      "name": "NFTSwapOfferCancelled",
      "type": "event"
    },
    {
      "anonymous": false,
      "inputs": [
        {
          "indexed": true,
          "internalType": "uint256",
          "name": "offerId",
          "type": "uint256"
        },
        {
          "indexed": true,
          "internalType": "address",
          "name": "offerer",
          "type": "address"
        },
        {
          "indexed": false,
          "internalType": "address",
          "name": "offeredNFTContractAddress",
          "type": "address"
        },
        {
          "indexed": true,
          "internalType": "uint256",
          "name": "offeredNFTTokenId",
          "type": "uint256"
        },
        {
          "indexed": false,
          "internalType": "uint256",
          "name": "targetAssetWrapperTokenId",
          "type": "uint256"
        }
      ],
      "name": "NFTSwapOfferMade",
      "type": "event"
    },
    {
      "anonymous": false,
      "inputs": [
        {
          "indexed": true,
          "internalType": "address",
          "name": "previousOwner",
          "type": "address"
        },
        {
          "indexed": true,
          "internalType": "address",
          "name": "newOwner",
          "type": "address"
        }
      ],
      "name": "OwnershipTransferred",
      "type": "event"
    },
    {
      "anonymous": false,
      "inputs": [
        {
          "indexed": true,
          "internalType": "uint256",
          "name": "offerId",
          "type": "uint256"
        },
        {
          "indexed": true,
          "internalType": "address",
          "name": "offerer",
          "type": "address"
        },
        {
          "indexed": false,
          "internalType": "address",
          "name": "seller",
          "type": "address"
        },
        {
          "indexed": true,
          "internalType": "uint256",
          "name": "targetTokenId",
          "type": "uint256"
        },
        {
          "indexed": false,
          "internalType": "uint256",
          "name": "wethAmount",
          "type": "uint256"
        },
        {
          "indexed": false,
          "internalType": "uint256",
          "name": "marketplaceFee",
          "type": "uint256"
        }
      ],
      "name": "WETHOfferAccepted",
      "type": "event"
    },
    {
      "anonymous": false,
      "inputs": [
        {
          "indexed": true,
          "internalType": "uint256",
          "name": "offerId",
          "type": "uint256"
        },
        {
          "indexed": true,
          "internalType": "address",
          "name": "offerer",
          "type": "address"
        },
        {
          "indexed": true,
          "internalType": "uint256",
          "name": "targetTokenId",
          "type": "uint256"
        }
      ],
      "name": "WETHOfferCancelled",
      "type": "event"
    },
    {
      "anonymous": false,
      "inputs": [
        {
          "indexed": true,
          "internalType": "uint256",
          "name": "offerId",
          "type": "uint256"
        },
        {
          "indexed": true,
          "internalType": "address",
          "name": "offerer",
          "type": "address"
        },
        {
          "indexed": true,
          "internalType": "uint256",
          "name": "targetTokenId",
          "type": "uint256"
        },
        {
          "indexed": false,
          "internalType": "uint256",
          "name": "wethAmount",
          "type": "uint256"
        }
      ],
      "name": "WETHOfferMade",
      "type": "event"
    },
    {
      "inputs": [],
      "name": "FEE_PRECISION",
      "outputs": [
        {
          "internalType": "uint16",
          "name": "",
          "type": "uint16"
        }
      ],
      "stateMutability": "view",
      "type": "function"
    },
    {
      "inputs": [
        {
          "internalType": "uint256",
          "name": "_offerId",
          "type": "uint256"
        }
      ],
      "name": "acceptNFTSwapOffer",
      "outputs": [],
      "stateMutability": "nonpayable",
      "type": "function"
    },
    {
      "inputs": [
        {
          "internalType": "uint256",
          "name": "_offerId",
          "type": "uint256"
        }
      ],
      "name": "acceptWETHOffer",
      "outputs": [],
      "stateMutability": "nonpayable",
      "type": "function"
    },
    {
      "inputs": [
        {
          "internalType": "uint256",
          "name": "",
          "type": "uint256"
        }
      ],
      "name": "activeListingIdByTokenId",
      "outputs": [
        {
          "internalType": "uint256",
          "name": "",
          "type": "uint256"
        }
      ],
      "stateMutability": "view",
      "type": "function"
    },
    {
      "inputs": [
        {
          "internalType": "uint256",
          "name": "",
          "type": "uint256"
        },
        {
          "internalType": "uint256",
          "name": "",
          "type": "uint256"
        }
      ],
      "name": "activeNFTSwapOfferIdsByTargetTokenId",
      "outputs": [
        {
          "internalType": "uint256",
          "name": "",
          "type": "uint256"
        }
      ],
      "stateMutability": "view",
      "type": "function"
    },
    {
      "inputs": [
        {
          "internalType": "uint256",
          "name": "",
          "type": "uint256"
        },
        {
          "internalType": "address",
          "name": "",
          "type": "address"
        }
      ],
      "name": "activeWETHOfferIdByTokenIdAndOfferer",
      "outputs": [
        {
          "internalType": "uint256",
          "name": "",
          "type": "uint256"
        }
      ],
      "stateMutability": "view",
      "type": "function"
    },
    {
      "inputs": [
        {
          "internalType": "uint256",
          "name": "",
          "type": "uint256"
        },
        {
          "internalType": "uint256",
          "name": "",
          "type": "uint256"
        }
      ],
      "name": "activeWETHOfferIdsByTargetTokenId",
      "outputs": [
        {
          "internalType": "uint256",
          "name": "",
          "type": "uint256"
        }
      ],
      "stateMutability": "view",
      "type": "function"
    },
    {
      "inputs": [],
      "name": "assetWrapperContract",
      "outputs": [
        {
          "internalType": "contract IERC721",
          "name": "",
          "type": "address"
        }
      ],
      "stateMutability": "view",
      "type": "function"
    },
    {
      "inputs": [
        {
          "internalType": "uint256",
          "name": "_listingId",
          "type": "uint256"
        }
      ],
      "name": "buyNFT",
      "outputs": [],
      "stateMutability": "payable",
      "type": "function"
    },
    {
      "inputs": [
        {
          "internalType": "uint256",
          "name": "_listingId",
          "type": "uint256"
        }
      ],
      "name": "cancelListing",
      "outputs": [],
      "stateMutability": "nonpayable",
      "type": "function"
    },
    {
      "inputs": [
        {
          "internalType": "uint256",
          "name": "_offerId",
          "type": "uint256"
        }
      ],
      "name": "cancelNFTSwapOffer",
      "outputs": [],
      "stateMutability": "nonpayable",
      "type": "function"
    },
    {
      "inputs": [
        {
          "internalType": "uint256",
          "name": "_offerId",
          "type": "uint256"
        }
      ],
      "name": "cancelWETHOffer",
      "outputs": [],
      "stateMutability": "nonpayable",
      "type": "function"
    },
    {
      "inputs": [],
      "name": "feeRecipient",
      "outputs": [
        {
          "internalType": "address payable",
          "name": "",
          "type": "address"
        }
      ],
      "stateMutability": "view",
      "type": "function"
    },
    {
      "inputs": [
        {
          "internalType": "uint256",
          "name": "tokenId",
          "type": "uint256"
        }
      ],
      "name": "getActiveListingIdForToken",
      "outputs": [
        {
          "internalType": "uint256",
          "name": "",
          "type": "uint256"
        }
      ],
      "stateMutability": "view",
      "type": "function"
    },
    {
      "inputs": [
        {
          "internalType": "uint256",
          "name": "listingId",
          "type": "uint256"
        }
      ],
      "name": "getListing",
      "outputs": [
        {
          "components": [
            {
              "internalType": "uint256",
              "name": "listingId",
              "type": "uint256"
            },
            {
              "internalType": "address",
              "name": "seller",
              "type": "address"
            },
            {
              "internalType": "uint256",
              "name": "tokenId",
              "type": "uint256"
            },
            {
              "internalType": "uint256",
              "name": "price",
              "type": "uint256"
            },
            {
              "internalType": "bool",
              "name": "active",
              "type": "bool"
            }
          ],
          "internalType": "struct AssetWrapperMarketplace.Listing",
          "name": "",
          "type": "tuple"
        }
      ],
      "stateMutability": "view",
      "type": "function"
    },
    {
      "inputs": [
        {
          "internalType": "uint256",
          "name": "_tokenId",
          "type": "uint256"
        },
        {
          "internalType": "uint256",
          "name": "_price",
          "type": "uint256"
        }
      ],
      "name": "listNFT",
      "outputs": [],
      "stateMutability": "nonpayable",
      "type": "function"
    },
    {
      "inputs": [
        {
          "internalType": "uint256",
          "name": "",
          "type": "uint256"
        }
      ],
      "name": "listings",
      "outputs": [
        {
          "internalType": "uint256",
          "name": "listingId",
          "type": "uint256"
        },
        {
          "internalType": "address",
          "name": "seller",
          "type": "address"
        },
        {
          "internalType": "uint256",
          "name": "tokenId",
          "type": "uint256"
        },
        {
          "internalType": "uint256",
          "name": "price",
          "type": "uint256"
        },
        {
          "internalType": "bool",
          "name": "active",
          "type": "bool"
        }
      ],
      "stateMutability": "view",
      "type": "function"
    },
    {
      "inputs": [
        {
          "internalType": "uint256",
          "name": "_targetAssetWrapperTokenId",
          "type": "uint256"
        },
        {
          "internalType": "address",
          "name": "_offeredNFTContractAddress",
          "type": "address"
        },
        {
          "internalType": "uint256",
          "name": "_offeredNFTTokenId",
          "type": "uint256"
        }
      ],
      "name": "makeNFTSwapOffer",
      "outputs": [],
      "stateMutability": "nonpayable",
      "type": "function"
    },
    {
      "inputs": [
        {
          "internalType": "uint256",
          "name": "_targetTokenId",
          "type": "uint256"
        },
        {
          "internalType": "uint256",
          "name": "_wethAmount",
          "type": "uint256"
        }
      ],
      "name": "makeWETHOffer",
      "outputs": [],
      "stateMutability": "nonpayable",
      "type": "function"
    },
    {
      "inputs": [],
      "name": "marketplaceFeePercent",
      "outputs": [
        {
          "internalType": "uint256",
          "name": "",
          "type": "uint256"
        }
      ],
      "stateMutability": "view",
      "type": "function"
    },
    {
      "inputs": [
        {
          "internalType": "uint256",
          "name": "",
          "type": "uint256"
        }
      ],
      "name": "nftSwapOffers",
      "outputs": [
        {
          "internalType": "uint256",
          "name": "offerId",
          "type": "uint256"
        },
        {
          "internalType": "address",
          "name": "offerer",
          "type": "address"
        },
        {
          "internalType": "address",
          "name": "offeredNFTContractAddress",
          "type": "address"
        },
        {
          "internalType": "uint256",
          "name": "offeredNFTTokenId",
          "type": "uint256"
        },
        {
          "internalType": "uint256",
          "name": "targetAssetWrapperTokenId",
          "type": "uint256"
        },
        {
          "internalType": "bool",
          "name": "active",
          "type": "bool"
        }
      ],
      "stateMutability": "view",
      "type": "function"
    },
    {
      "inputs": [],
      "name": "owner",
      "outputs": [
        {
          "internalType": "address",
          "name": "",
          "type": "address"
        }
      ],
      "stateMutability": "view",
      "type": "function"
    },
    {
      "inputs": [],
      "name": "renounceOwnership",
      "outputs": [],
      "stateMutability": "nonpayable",
      "type": "function"
    },
    {
      "inputs": [
        {
          "internalType": "address payable",
          "name": "_newRecipient",
          "type": "address"
        }
      ],
      "name": "setFeeRecipient",
      "outputs": [],
      "stateMutability": "nonpayable",
      "type": "function"
    },
    {
      "inputs": [
        {
          "internalType": "uint256",
          "name": "_newFeePercent",
          "type": "uint256"
        }
      ],
      "name": "setMarketplaceFeePercent",
      "outputs": [],
      "stateMutability": "nonpayable",
      "type": "function"
    },
    {
      "inputs": [
        {
          "internalType": "address",
          "name": "newOwner",
          "type": "address"
        }
      ],
      "name": "transferOwnership",
      "outputs": [],
      "stateMutability": "nonpayable",
      "type": "function"
    },
    {
      "inputs": [
        {
          "internalType": "uint256",
          "name": "",
          "type": "uint256"
        }
      ],
      "name": "wethOffers",
      "outputs": [
        {
          "internalType": "uint256",
          "name": "offerId",
          "type": "uint256"
        },
        {
          "internalType": "address",
          "name": "offerer",
          "type": "address"
        },
        {
          "internalType": "uint256",
          "name": "targetTokenId",
          "type": "uint256"
        },
        {
          "internalType": "uint256",
          "name": "wethAmount",
          "type": "uint256"
        },
        {
          "internalType": "bool",
          "name": "active",
          "type": "bool"
        }
      ],
      "stateMutability": "view",
      "type": "function"
    },
    {
      "inputs": [],
      "name": "wethTokenContract",
      "outputs": [
        {
          "internalType": "contract IERC20Minimal",
          "name": "",
          "type": "address"
        }
      ],
      "stateMutability": "view",
      "type": "function"
    },
    {
      "inputs": [],
      "name": "withdrawETHFees",
      "outputs": [],
      "stateMutability": "nonpayable",
      "type": "function"
    }
  ],
  "bytecode": "0x60c06040523480156200001157600080fd5b50604051620034f6380380620034f68339810160408190526200003491620002b2565b33806200005c57604051631e4fbdf760e01b8152600060048201526024015b60405180910390fd5b620000678162000249565b50600180556001600160a01b038416620000d65760405162461bcd60e51b815260206004820152602960248201527f4d61726b6574706c6163653a20496e76616c696420417373657457726170706560448201526872206164647265737360b81b606482015260840162000053565b6001600160a01b0383166200013e5760405162461bcd60e51b815260206004820152602760248201527f4d61726b6574706c6163653a20496e76616c6964205745544820746f6b656e206044820152666164647265737360c81b606482015260840162000053565b6001600160a01b038216620001a95760405162461bcd60e51b815260206004820152602a60248201527f4d61726b6574706c6163653a20496e76616c69642066656520726563697069656044820152696e74206164647265737360b01b606482015260840162000053565b6064811115620002075760405162461bcd60e51b815260206004820152602260248201527f4d61726b6574706c6163653a204665652063616e6e6f74206578636565642031604482015261302560f01b606482015260840162000053565b6001600160a01b0393841660805291831660a052600d80546001600160a01b0319169190931617909155600c556000600281905560038190556004556200030c565b600080546001600160a01b038381166001600160a01b0319831681178455604051919092169283917f8be0079c531659141344cd1fd0a4f28419497f9722a3daafe3b4186f6b6457e09190a35050565b6001600160a01b0381168114620002af57600080fd5b50565b60008060008060808587031215620002c957600080fd5b8451620002d68162000299565b6020860151909450620002e98162000299565b6040860151909350620002fc8162000299565b6060959095015193969295505050565b60805160a05161315b6200039b6000396000818161036d01528181610aeb01528181610bd901526128170152600081816101d90152818161088101528181610cd20152818161102d015281816111c80152818161125b01528181611461015281816118fb01528181611bcf01528181611d0e01528181611dc8015281816121d501526126a8015261315b6000f3fe6080604052600436106101c25760003560e01c8063715018a6116100f7578063be487c4611610095578063e74b981b11610064578063e74b981b1461069e578063f0e9f6e3146106be578063f2fde38b146106de578063fe646ea7146106fe57600080fd5b8063be487c46146105de578063de6a87bc146105fe578063de74e57b1461061e578063e63a391f1461067557600080fd5b8063a7ce43b2116100d1578063a7ce43b214610539578063a854d61414610571578063a912445114610591578063ae7c1349146105b157600080fd5b8063715018a6146104e65780638da5cb5b146104fb57806394383f141461051957600080fd5b806338d73b0d1161016457806344b6cb561161013e57806344b6cb561461038f578063469048401461042a57806351ed82881461044a5780636d557ce21461045d57600080fd5b806338d73b0d14610330578063393da550146103465780633e7d07f61461035b57600080fd5b806323df0f24116101a057806323df0f24146102ae57806325ce868b146102d05780632b56f24d146102f0578063305a67a81461031057600080fd5b80630276fb46146101c757806303c2c31d14610218578063107a274a14610246575b600080fd5b3480156101d357600080fd5b506101fb7f000000000000000000000000000000000000000000000000000000000000000081565b6040516001600160a01b0390911681526020015b60405180910390f35b34801561022457600080fd5b50610238610233366004612e50565b61072b565b60405190815260200161020f565b34801561025257600080fd5b50610266610261366004612e72565b61075c565b60405161020f9190815181526020808301516001600160a01b031690820152604080830151908201526060808301519082015260809182015115159181019190915260a00190565b3480156102ba57600080fd5b506102ce6102c9366004612e72565b6107f6565b005b3480156102dc57600080fd5b506102ce6102eb366004612e72565b610da6565b3480156102fc57600080fd5b506102ce61030b366004612e72565b610fa4565b34801561031c57600080fd5b506102ce61032b366004612e72565b611520565b34801561033c57600080fd5b50610238600c5481565b34801561035257600080fd5b506102ce61164e565b34801561036757600080fd5b506101fb7f000000000000000000000000000000000000000000000000000000000000000081565b34801561039b57600080fd5b506103ef6103aa366004612e72565b600a6020526000908152604090208054600182015460028301546003840154600485015460059095015493946001600160a01b03938416949290931692909160ff1686565b604080519687526001600160a01b039586166020880152939094169285019290925260608401526080830152151560a082015260c00161020f565b34801561043657600080fd5b50600d546101fb906001600160a01b031681565b6102ce610458366004612e72565b611766565b34801561046957600080fd5b506104b4610478366004612e72565b6007602052600090815260409020805460018201546002830154600384015460049094015492936001600160a01b039092169290919060ff1685565b604080519586526001600160a01b0390941660208601529284019190915260608301521515608082015260a00161020f565b3480156104f257600080fd5b506102ce611b2b565b34801561050757600080fd5b506000546001600160a01b03166101fb565b34801561052557600080fd5b506102ce610534366004612e50565b611b3f565b34801561054557600080fd5b50610238610554366004612ea0565b600960209081526000928352604080842090915290825290205481565b34801561057d57600080fd5b5061023861058c366004612e50565b611fa3565b34801561059d57600080fd5b506102ce6105ac366004612e72565b611fbf565b3480156105bd57600080fd5b506102386105cc366004612e72565b60066020526000908152604090205481565b3480156105ea57600080fd5b506102ce6105f9366004612ed0565b61205f565b34801561060a57600080fd5b506102ce610619366004612e50565b61261c565b34801561062a57600080fd5b506104b4610639366004612e72565b6005602052600090815260409020805460018201546002830154600384015460049094015492936001600160a01b039092169290919060ff1685565b34801561068157600080fd5b5061068b6103e881565b60405161ffff909116815260200161020f565b3480156106aa57600080fd5b506102ce6106b9366004612f08565b612acb565b3480156106ca57600080fd5b506102ce6106d9366004612e72565b612b86565b3480156106ea57600080fd5b506102ce6106f9366004612f08565b612d6e565b34801561070a57600080fd5b50610238610719366004612e72565b60009081526006602052604090205490565b6008602052816000526040600020818154811061074757600080fd5b90600052602060002001600091509150505481565b6107996040518060a001604052806000815260200160006001600160a01b0316815260200160008152602001600081526020016000151581525090565b50600090815260056020908152604091829020825160a0810184528154815260018201546001600160a01b0316928101929092526002810154928201929092526003820154606082015260049091015460ff161515608082015290565b6107fe612da9565b600081815260076020526040902060040154819060ff1661083a5760405162461bcd60e51b815260040161083190612f2c565b60405180910390fd5b60008281526007602052604080822060018101546002820154600383015493516331a9108f60e11b81526004810182905292946001600160a01b03928316949193919290917f000000000000000000000000000000000000000000000000000000000000000090911690636352211e90602401602060405180830381865afa1580156108ca573d6000803e3d6000fd5b505050506040513d601f19601f820116820180604052508101906108ee9190612f71565b90506001600160a01b038116331461096e5760405162461bcd60e51b815260206004820152603a60248201527f4d61726b6574706c6163653a204f6e6c7920746865204e4654206f776e65722060448201527f63616e2061636365707420746869732057455448206f666665720000000000006064820152608401610831565b336001600160a01b038516036109dd5760405162461bcd60e51b815260206004820152602e60248201527f4d61726b6574706c6163653a2043616e6e6f742061636365707420796f75722060448201526d37bbb7102ba2aa241037b33332b960911b6064820152608401610831565b60048501805460ff1916905560008381526009602090815260408083206001600160a01b0388168452825280832083905585835260069091529020548015610a94576000818152600560205260409020600481015460ff1615610a835760048101805460ff19169055600181015460405186916001600160a01b03169084907fffadd0f4e7d64abb82ef3d770cd739a881c221c0b5b162238659e6567216abe290600090a45b506000848152600660205260408120555b600c5460009015610abd57600c546103e890610ab09086612fa4565b610aba9190612fc1565b90505b6000610ac98286612fe3565b90508115610bc257600d546040516323b872dd60e01b81526001600160a01b037f00000000000000000000000000000000000000000000000000000000000000008116926323b872dd92610b25928c9216908790600401612ff6565b6020604051808303816000875af1158015610b44573d6000803e3d6000fd5b505050506040513d601f19601f82011682018060405250810190610b68919061301a565b610bc25760405162461bcd60e51b815260206004820152602560248201527f4d61726b6574706c6163653a205745544820666565207472616e736665722066604482015264185a5b195960da1b6064820152608401610831565b6040516323b872dd60e01b81526001600160a01b037f000000000000000000000000000000000000000000000000000000000000000016906323b872dd90610c12908a9088908690600401612ff6565b6020604051808303816000875af1158015610c31573d6000803e3d6000fd5b505050506040513d601f19601f82011682018060405250810190610c55919061301a565b610cbb5760405162461bcd60e51b815260206004820152603160248201527f4d61726b6574706c6163653a20574554482073656c6c65722070726f636565646044820152701cc81d1c985b9cd9995c8819985a5b1959607a1b6064820152608401610831565b604051632142170760e11b81526001600160a01b037f000000000000000000000000000000000000000000000000000000000000000016906342842e0e90610d0b9087908b908b90600401612ff6565b600060405180830381600087803b158015610d2557600080fd5b505af1158015610d39573d6000803e3d6000fd5b5050604080516001600160a01b038881168252602082018a9052918101869052899350908a1691508c907f3d7903ba658df10ef23d89876ff0351071e1c1b655d6df8fe180b64d18d625f9906060015b60405180910390a4505050505050505050610da360018055565b50565b610dae612da9565b60008181526007602052604090206001015481906001600160a01b03163314610e2d5760405162461bcd60e51b815260206004820152602b60248201527f4d61726b6574706c6163653a2043616c6c6572206973206e6f7420746865205760448201526a22aa241037b33332b932b960a91b6064820152608401610831565b600082815260076020526040902060040154829060ff16610e605760405162461bcd60e51b815260040161083190612f2c565b6000838152600760209081526040808320600281015460048201805460ff191690558085526009845282852060018301546001600160a01b031686528452828520859055808552600890935290832090925b8154811015610f665786828281548110610ece57610ece61303c565b906000526020600020015403610f545781548290610eee90600190612fe3565b81548110610efe57610efe61303c565b9060005260206000200154828281548110610f1b57610f1b61303c565b906000526020600020018190555081805480610f3957610f39613052565b60019003818190600052602060002001600090559055610f66565b80610f5e81613068565b915050610eb2565b506040518290339088907ffb38e5d995a86796c11974bd7642d35ffeb4ca356a6c8983589a0ded0b7a32f990600090a45050505050610da360018055565b610fac612da9565b6000818152600a6020526040902060050154819060ff16610fdf5760405162461bcd60e51b815260040161083190613081565b6000828152600a602052604080822060018101546002820154600383015460048085015495516331a9108f60e11b815290810186905293956001600160a01b039384169592841694919390917f000000000000000000000000000000000000000000000000000000000000000090911690636352211e90602401602060405180830381865afa158015611076573d6000803e3d6000fd5b505050506040513d601f19601f8201168201806040525081019061109a9190612f71565b90506001600160a01b03811633146111315760405162461bcd60e51b815260206004820152604e60248201527f4d61726b6574706c6163653a204f6e6c7920746865207461726765742041737360448201527f657457726170706572204e4654206f776e65722063616e20616363657074207460648201526d3434b99039bbb0b81037b33332b960911b608482015260a401610831565b336001600160a01b038616036111a05760405162461bcd60e51b815260206004820152602e60248201527f4d61726b6574706c6163653a2043616e6e6f742061636365707420796f75722060448201526d37bbb71039bbb0b81037b33332b960911b6064820152608401610831565b60405163e985e9c560e01b81526001600160a01b0382811660048301523060248301526000917f00000000000000000000000000000000000000000000000000000000000000009091169063e985e9c590604401602060405180830381865afa158015611211573d6000803e3d6000fd5b505050506040513d601f19601f82011682018060405250810190611235919061301a565b806112d1575060405163020604bf60e21b81526004810184905230906001600160a01b037f0000000000000000000000000000000000000000000000000000000000000000169063081812fc90602401602060405180830381865afa1580156112a2573d6000803e3d6000fd5b505050506040513d601f19601f820116820180604052508101906112c69190612f71565b6001600160a01b0316145b9050806113545760405162461bcd60e51b8152602060048201526044602482018190527f4d61726b6574706c6163653a20417070726f7665207468697320636f6e747261908201527f637420746f207472616e7366657220796f7572204173736574577261707065726064820152630813919560e21b608482015260a401610831565b60058701805460ff1916905560008381526006602052604090205480156113ea576000818152600560205260409020600481015460ff16156113d95760048101805460ff19169055600181015460405186916001600160a01b03169084907fffadd0f4e7d64abb82ef3d770cd739a881c221c0b5b162238659e6567216abe290600090a45b506000848152600660205260408120555b604051632142170760e11b81526001600160a01b038716906342842e0e9061141a908a9087908a90600401612ff6565b600060405180830381600087803b15801561143457600080fd5b505af1158015611448573d6000803e3d6000fd5b5050604051632142170760e11b81526001600160a01b037f00000000000000000000000000000000000000000000000000000000000000001692506342842e0e915061149c9086908b908990600401612ff6565b600060405180830381600087803b1580156114b657600080fd5b505af11580156114ca573d6000803e3d6000fd5b5050604080516001600160a01b038a81168252602082018a90529181018890528187169350908a1691508c907f18ac13b9e76df4f411957009487d5eaeead7d2fe9722909e13bce77ea84afea590606001610d89565b611528612da9565b60008181526005602052604090206001015481906001600160a01b031633146115b05760405162461bcd60e51b815260206004820152603460248201527f4d61726b6574706c6163653a2043616c6c6572206973206e6f74207468652073604482015273656c6c6572206f6620746865206c697374696e6760601b6064820152608401610831565b600082815260056020526040902060040154829060ff166115e35760405162461bcd60e51b8152600401610831906130ca565b6000838152600560209081526040808320600281015460048201805460ff191690558085526006909352818420849055905190928291339188917fffadd0f4e7d64abb82ef3d770cd739a881c221c0b5b162238659e6567216abe29190a450505050610da360018055565b611656612dd3565b47806116b05760405162461bcd60e51b8152602060048201526024808201527f4d61726b6574706c6163653a204e6f20455448206665657320746f20776974686044820152636472617760e01b6064820152608401610831565b600d546040516000916001600160a01b03169083908381818185875af1925050503d80600081146116fd576040519150601f19603f3d011682016040523d82523d6000602084013e611702565b606091505b50509050806117625760405162461bcd60e51b815260206004820152602660248201527f4d61726b6574706c6163653a2045544820466565207769746864726177616c2060448201526519985a5b195960d21b6064820152608401610831565b5050565b61176e612da9565b600081815260056020526040902060040154819060ff166117a15760405162461bcd60e51b8152600401610831906130ca565b60008281526005602052604090206001810154600282015460038301546001600160a01b03909216913383900361182f5760405162461bcd60e51b815260206004820152602c60248201527f4d61726b6574706c6163653a2053656c6c65722063616e6e6f7420627579207460448201526b1a195a5c881bdddb8813919560a21b6064820152608401610831565b80341461189a5760405162461bcd60e51b815260206004820152603360248201527f4d61726b6574706c6163653a20506c656173652073656e64207468652065786160448201527218dd081c1c9a58d9481bd9881d1a1948139195606a1b6064820152608401610831565b60048401805460ff191690556000828152600660205260408120819055600c54156118dd57600c546103e8906118d09084612fa4565b6118da9190612fc1565b90505b60006118e98284612fe3565b604051632142170760e11b81529091507f00000000000000000000000000000000000000000000000000000000000000006001600160a01b0316906342842e0e9061193c90889033908990600401612ff6565b600060405180830381600087803b15801561195657600080fd5b505af115801561196a573d6000803e3d6000fd5b505050506000821115611a1c57600d546040516000916001600160a01b03169084908381818185875af1925050503d80600081146119c4576040519150601f19603f3d011682016040523d82523d6000602084013e6119c9565b606091505b5050905080611a1a5760405162461bcd60e51b815260206004820181905260248201527f4d61726b6574706c6163653a20466565207472616e73666572206661696c65646044820152606401610831565b505b6000856001600160a01b03168260405160006040518083038185875af1925050503d8060008114611a69576040519150601f19603f3d011682016040523d82523d6000602084013e611a6e565b606091505b5050905080611aca5760405162461bcd60e51b815260206004820152602260248201527f4d61726b6574706c6163653a2053656c6c6572207061796d656e74206661696c604482015261195960f21b6064820152608401610831565b60408051868152602081018690529081018490526001600160a01b0387169033908b907f47c0046c0d923725fc7b369072732bd5d2eba84ffb3644b926d286835685b0119060600160405180910390a45050505050505050610da360018055565b611b33612dd3565b611b3d6000612e00565b565b611b47612da9565b60008111611bac5760405162461bcd60e51b815260206004820152602c60248201527f4d61726b6574706c6163653a205072696365206d75737420626520677265617460448201526b6572207468616e207a65726f60a01b6064820152608401610831565b336040516331a9108f60e11b8152600481018490526001600160a01b03918216917f00000000000000000000000000000000000000000000000000000000000000001690636352211e90602401602060405180830381865afa158015611c16573d6000803e3d6000fd5b505050506040513d601f19601f82011682018060405250810190611c3a9190612f71565b6001600160a01b031614611c9c5760405162461bcd60e51b8152602060048201526024808201527f4d61726b6574706c6163653a20596f7520646f206e6f74206f776e20746869736044820152630813919560e21b6064820152608401610831565b60008281526006602052604090205415611d025760405162461bcd60e51b815260206004820152602160248201527f4d61726b6574706c6163653a20546f6b656e20616c7265616479206c697374656044820152601960fa1b6064820152608401610831565b60006001600160a01b037f00000000000000000000000000000000000000000000000000000000000000001663e985e9c5336040516001600160e01b031960e084901b1681526001600160a01b039091166004820152306024820152604401602060405180830381865afa158015611d7e573d6000803e3d6000fd5b505050506040513d601f19601f82011682018060405250810190611da2919061301a565b80611e3e575060405163020604bf60e21b81526004810184905230906001600160a01b037f0000000000000000000000000000000000000000000000000000000000000000169063081812fc90602401602060405180830381865afa158015611e0f573d6000803e3d6000fd5b505050506040513d601f19601f82011682018060405250810190611e339190612f71565b6001600160a01b0316145b905080611eb35760405162461bcd60e51b815260206004820152603760248201527f4d61726b6574706c6163653a20436f6e7472616374206e6f7420617070726f7660448201527f656420746f207472616e736665722074686973204e46540000000000000000006064820152608401610831565b60028054906000611ec383613068565b9091555050600280546040805160a0810182528281523360208083018281528385018a8152606085018a815260016080870181815260008a81526005875289812098518955945191880180546001600160a01b0319166001600160a01b03909316929092179091559151988601989098559651600385015595516004909301805460ff1916931515939093179092558785526006825293829020839055905185815291928692909184917fb7070c3c377d2fb697e5ddc72b0283eb751116d682ff1cdb579eab77bcc4013b910160405180910390a4505061176260018055565b600b602052816000526040600020818154811061074757600080fd5b611fc7612dd3565b60648111156120235760405162461bcd60e51b815260206004820152602260248201527f4d61726b6574706c6163653a204665652063616e6e6f74206578636565642031604482015261302560f01b6064820152608401610831565b600c8190556040518181527fe18aa129833f655a8166b6185277fee7a53f67e46fd32329bc2fc2ac21274d55906020015b60405180910390a150565b612067612da9565b6001600160a01b0382166120e35760405162461bcd60e51b815260206004820152603860248201527f4d61726b6574706c6163653a204f666665726564204e465420636f6e7472616360448201527f7420616464726573732063616e6e6f74206265207a65726f00000000000000006064820152608401610831565b81336040516331a9108f60e11b8152600481018490526001600160a01b0391821691831690636352211e90602401602060405180830381865afa15801561212e573d6000803e3d6000fd5b505050506040513d601f19601f820116820180604052508101906121529190612f71565b6001600160a01b0316146121bc5760405162461bcd60e51b815260206004820152602b60248201527f4d61726b6574706c6163653a20596f7520646f206e6f74206f776e207468652060448201526a1bd999995c99590813919560aa1b6064820152608401610831565b6040516331a9108f60e11b8152600481018590526000907f00000000000000000000000000000000000000000000000000000000000000006001600160a01b031690636352211e90602401602060405180830381865afa158015612224573d6000803e3d6000fd5b505050506040513d601f19601f820116820180604052508101906122489190612f71565b90506001600160a01b0381166122bc5760405162461bcd60e51b815260206004820152603360248201527f4d61726b6574706c6163653a20546172676574204173736574577261707065726044820152720813919508191bd95cc81b9bdd08195e1a5cdd606a1b6064820152608401610831565b336001600160a01b038216036123465760405162461bcd60e51b815260206004820152604360248201527f4d61726b6574706c6163653a2043616e6e6f74206d616b65206120737761702060448201527f6f6666657220666f7220796f7572206f776e204173736574577261707065722060648201526213919560ea1b608482015260a401610831565b60006001600160a01b03831663e985e9c5336040516001600160e01b031960e084901b1681526001600160a01b039091166004820152306024820152604401602060405180830381865afa1580156123a2573d6000803e3d6000fd5b505050506040513d601f19601f820116820180604052508101906123c6919061301a565b80612442575060405163020604bf60e21b81526004810185905230906001600160a01b0385169063081812fc90602401602060405180830381865afa158015612413573d6000803e3d6000fd5b505050506040513d601f19601f820116820180604052508101906124379190612f71565b6001600160a01b0316145b9050806124c55760405162461bcd60e51b815260206004820152604560248201527f4d61726b6574706c6163653a20417070726f7665207468697320636f6e74726160448201527f637420746f207472616e7366657220796f7572206f666665726564204e465420606482015264199a5c9cdd60da1b608482015260a401610831565b600480549060006124d583613068565b90915550506004546040805160c0810190915281815260208101336001600160a01b03908116825288811660208084019190915260408084018a905260608085018d9052600160809586018190526000888152600a8552838120885181558886015181840180549189166001600160a01b0319928316179055898601516002830180549190991691161790965591870151600386015594860151600485015560a0909501516005909301805493151560ff19909416939093179092558a8452600b815290832080549283018155835290912001819055846125b33390565b6001600160a01b0316827f7cab7a6baa9acfadf6dc9c9c25e9c1c7f2363397987337ad110a2b8e7288a742898b6040516126029291906001600160a01b03929092168252602082015260400190565b60405180910390a45050505061261760018055565b505050565b612624612da9565b6000811161268f5760405162461bcd60e51b815260206004820152603260248201527f4d61726b6574706c6163653a205745544820616d6f756e74206d7573742062656044820152712067726561746572207468616e207a65726f60701b6064820152608401610831565b6040516331a9108f60e11b8152600481018390526000907f00000000000000000000000000000000000000000000000000000000000000006001600160a01b031690636352211e90602401602060405180830381865afa1580156126f7573d6000803e3d6000fd5b505050506040513d601f19601f8201168201806040525081019061271b9190612f71565b90506001600160a01b0381166127995760405162461bcd60e51b815260206004820152603f60248201527f4d61726b6574706c6163653a20546172676574204e465420646f6573206e6f7460448201527f206578697374206f72206f776e6572206973207a65726f2061646472657373006064820152608401610831565b336001600160a01b0382160361280b5760405162461bcd60e51b815260206004820152603160248201527f4d61726b6574706c6163653a2043616e6e6f74206d616b6520616e206f6666656044820152701c881bdb881e5bdd5c881bdddb88139195607a1b6064820152608401610831565b60006001600160a01b037f00000000000000000000000000000000000000000000000000000000000000001663dd62ed3e336040516001600160e01b031960e084901b1681526001600160a01b039091166004820152306024820152604401602060405180830381865afa158015612887573d6000803e3d6000fd5b505050506040513d601f19601f820116820180604052508101906128ab919061310c565b9050828110156129235760405162461bcd60e51b815260206004820152603860248201527f4d61726b6574706c6163653a205745544820616c6c6f77616e636520746f6f2060448201527f6c6f772e20417070726f766520574554482066697273742e00000000000000006064820152608401610831565b6000848152600960209081526040808320338452909152902054156129ba5760405162461bcd60e51b815260206004820152604160248201527f4d61726b6574706c6163653a20596f7520616c7265616479206861766520616e60448201527f206163746976652057455448206f6666657220666f72207468697320746f6b656064820152603760f91b608482015260a401610831565b600380549060006129ca83613068565b9091555050600380546040805160a0810182528281523360208083018281528385018b8152606085018b815260016080870181815260008a81526007875289812098518955945188830180546001600160a01b0319166001600160a01b0390921691909117905592516002880155905198860198909855516004909401805460ff191694151594909417909355898352600881528383208054968701815583528083209095018490558882526009855282822081835285529082902083905590518681529192879284917f25f566d8af1f7884df17a8a67e9c38df28f77a0a88fc67097c7aa2980e2c8b5c910160405180910390a450505061176260018055565b612ad3612dd3565b6001600160a01b038116612b385760405162461bcd60e51b815260206004820152602660248201527f4d61726b6574706c6163653a20496e76616c6964206e657720666565207265636044820152651a5c1a595b9d60d21b6064820152608401610831565b600d80546001600160a01b0319166001600160a01b0383169081179091556040519081527f7a7b5a0a132f9e0581eb8527f66eae9ee89c2a3e79d4ac7e41a1f1f4d48a7fc290602001612054565b612b8e612da9565b6000818152600a602052604090206001015481906001600160a01b03163314612c115760405162461bcd60e51b815260206004820152602f60248201527f4d61726b6574706c6163653a2043616c6c6572206973206e6f7420746865204e60448201526e232a1029bbb0b81037b33332b932b960891b6064820152608401610831565b6000828152600a6020526040902060050154829060ff16612c445760405162461bcd60e51b815260040161083190613081565b6000838152600a60209081526040808320600481015460058201805460ff19169055808552600b90935290832090925b8154811015612d285786828281548110612c9057612c9061303c565b906000526020600020015403612d165781548290612cb090600190612fe3565b81548110612cc057612cc061303c565b9060005260206000200154828281548110612cdd57612cdd61303c565b906000526020600020018190555081805480612cfb57612cfb613052565b60019003818190600052602060002001600090559055612d28565b80612d2081613068565b915050612c74565b50604051828152339087907fb754b09043ac955ef8f4a94f4bb93afe389fe1049589af9aa010b193648f2b7e9060200160405180910390a35050505050610da360018055565b612d76612dd3565b6001600160a01b038116612da057604051631e4fbdf760e01b815260006004820152602401610831565b610da381612e00565b600260015403612dcc57604051633ee5aeb560e01b815260040160405180910390fd5b6002600155565b6000546001600160a01b03163314611b3d5760405163118cdaa760e01b8152336004820152602401610831565b600080546001600160a01b038381166001600160a01b0319831681178455604051919092169283917f8be0079c531659141344cd1fd0a4f28419497f9722a3daafe3b4186f6b6457e09190a35050565b60008060408385031215612e6357600080fd5b50508035926020909101359150565b600060208284031215612e8457600080fd5b5035919050565b6001600160a01b0381168114610da357600080fd5b60008060408385031215612eb357600080fd5b823591506020830135612ec581612e8b565b809150509250929050565b600080600060608486031215612ee557600080fd5b833592506020840135612ef781612e8b565b929592945050506040919091013590565b600060208284031215612f1a57600080fd5b8135612f2581612e8b565b9392505050565b60208082526025908201527f4d61726b6574706c6163653a2057455448204f66666572206973206e6f742061604082015264637469766560d81b606082015260800190565b600060208284031215612f8357600080fd5b8151612f2581612e8b565b634e487b7160e01b600052601160045260246000fd5b8082028115828204841417612fbb57612fbb612f8e565b92915050565b600082612fde57634e487b7160e01b600052601260045260246000fd5b500490565b81810381811115612fbb57612fbb612f8e565b6001600160a01b039384168152919092166020820152604081019190915260600190565b60006020828403121561302c57600080fd5b81518015158114612f2557600080fd5b634e487b7160e01b600052603260045260246000fd5b634e487b7160e01b600052603160045260246000fd5b60006001820161307a5761307a612f8e565b5060010190565b60208082526029908201527f4d61726b6574706c6163653a204e46542053776170204f66666572206973206e6040820152686f742061637469766560b81b606082015260800190565b60208082526022908201527f4d61726b6574706c6163653a204c697374696e67206973206e6f742061637469604082015261766560f01b606082015260800190565b60006020828403121561311e57600080fd5b505191905056fea264697066735822122014c50a1a6aa343741a6e31fbc371caf5ab4b3c96698fb3985399733873e6bb6864736f6c63430008140033",
  "linkReferences": {},
  "deployedLinkReferences": {}
}